{
  "contractName": "SharedWallet",
  "abi": [
    {
      "stateMutability": "payable",
      "type": "receive",
      "payable": true
    },
    {
      "inputs": [
        {
          "internalType": "address payable",
          "name": "_to",
          "type": "address"
        },
        {
          "internalType": "uint256",
          "name": "_amount",
          "type": "uint256"
        }
      ],
      "name": "withdrawalMoney",
      "outputs": [],
      "stateMutability": "nonpayable",
      "type": "function"
    }
  ],
  "bytecode": "0x608060405234801561001057600080fd5b5061011e806100206000396000f3fe608060405260043610603c576000357c010000000000000000000000000000000000000000000000000000000090048063022578ed146047576042565b36604257005b600080fd5b348015605257600080fd5b50609c60048036036040811015606757600080fd5b81019080803573ffffffffffffffffffffffffffffffffffffffff16906020019092919080359060200190929190505050609e565b005b8173ffffffffffffffffffffffffffffffffffffffff166108fc829081150290604051600060405180830381858888f1935050505015801560e3573d6000803e3d6000fd5b50505056fea2646970667358221220029b48beef31deb6eeda196994befb1a2e16db1e6eb041be27034d8cf30a921a64736f6c63430007060033",
  "immutableReferences": {},
  "source": "//SPDX-License-Identifier: MIT\n\npragma solidity ^0.7.4;\n\ncontract SharedWallet {\n    \n    // withdrawal function with instructions \n    function withdrawalMoney(address payable _to, uint _amount) public {\n        _to.transfer(_amount);\n    }\n\n    receive() external payable {\n        \n    }\n}",
  "sourcePath": "/Users/mgb/Documents/projects/sol/solidity-practice/SharedWallet/contracts/Sharedwallet.sol",
  "compiler": {
    "name": "solc",
    "version": "0.7.6+commit.7338295f.Emscripten.clang"
  },
  "schemaVersion": "3.3.4",
  "updatedAt": "2021-03-24T10:07:31.938Z",
  "networkType": "ethereum",
  "devdoc": {
    "kind": "dev",
    "methods": {},
    "version": 1
  },
  "userdoc": {
    "kind": "user",
    "methods": {},
    "version": 1
  }
}